:020000040800F2
:1000000000000220DD1C0008791600087F16000899
:10001000851600088B1600089116000800000000E5
:10002000000000000000000000000000971600081B
:10003000A316000800000000AF160008BB16000859
:100040002D1D00082D1D00082D1D00082D1D000868
:100050002D1D00082D1D00082D1D00082D1D000858
:100060002D1D00082D1D00082D1D00082D1D000848
:100070002D1D00082D1D00082D1D0008C9160008A3
:100080002D1D00082D1D00082D1D00082D1D000828
:100090002D1D00082D1D00082D1D00082D1D000818
:1000A0002D1D00082D1D00082D1D00082D1D000808
:1000B0002D1D0008DD160008F11600082D1D000892
:1000C0002D1D00082D1D00082D1D00082D1D0008E8
:1000D0002D1D00082D1D0008051700082D1D000806
:1000E0002D1D00082D1D00082D1D00082D1D0008C8
:1000F0002D1D00082D1D00082D1D00082D1D0008B8
:100100002D1D00082D1D00082D1D00082D1D0008A7
:100110002D1D00082D1D00082D1D00082D1D000897
:10012000191700082D1D00082D1D00082D170008A7
:100130002D1D000800000000000000002D1D00081B
:100140002D1D00082D1D00082D1D00084117000859
:100150002D1D00082D1D00082D1D00082D1D000857
:100160002D1D00082D1D00082D1D00082D1D000847
:100170002D1D00082D1D0008000000002D1D000889
:040180002D1D000829
:1001840010B5054C237833B9044B13B10448AFF3CD
:1001940000800123237010BD100200200000000025
:1001A40004DC000808B5034B1BB103490348AFF353
:1001B400008008BD000000001402002004DC0008D8
:1001C40053B94AB9002908BF00281CBF4FF0FF31BA
:1001D4004FF0FF3000F072B9ADF1080C6DE904CEB8
:1001E40000F006F8DDF804E0DDE9022304B070470E
:1001F4002DE9F047089E0D4604468E46002B4CD14F
:100204008A42944667D9B2FA82F353B102FA03FCE4
:10021400C3F1200201FA03FE20FA02F242EA0E0EB2
:100224009C404FEA1C47BEFBF7F11FFA8CF507FB15
:1002340011EE01FB05F0220C42EA0E4290420AD96B
:100244001CEB020201F1FF3E80F01981904240F262
:10025400168102396244121AB2FBF7F007FB10222E
:1002640000FB05F5A4B244EA0244A5420AD91CEBFA
:10027400040400F1FF3280F00481A54240F20181C0
:100284006444023840EA01400021641B1EB1DC4092
:100294000023C6E90043BDE8F0878B4208D9002E4D
:1002A40000F0EA800021C6E900050846BDE8F087B1
:1002B400B3FA83F1002948D1AB4202D3824200F25F
:1002C400F880841A65EB030201209646002EE2D0E2
:1002D400C6E9004EDFE702B9FFDEB2FA82F3002B73
:1002E40040F08E80881A0121170C1FFA82FEB0FBA1
:1002F400F7F507FB1500220C42EA00420EFB05F05D
:10030400904208D91CEB020205F1FF3802D2904258
:1003140000F2CC804546121AB2FBF7F007FB10221C
:100324000EFB00FEA4B244EA0244A64508D91CEB25
:10033400040400F1FF3202D2A64500F2B480104654
:10034400A4EB0E0440EA0540A0E7C1F120078B406E
:1003540022FA07FC4CEA030C25FA07FA4FEA1C4977
:10036400BAFBF9F88D4020FA07F309FB18AA1FFA23
:100374008CFE2B4300FA01F508FB0EF01C0C44EA3A
:100384000A44A04202FA01F20BD91CEB040408F15E
:10039400FF3A80F08680A04240F28380A8F10208F0
:1003A4006444241A98B2B4FBF9F309FB134403FB25
:1003B4000EFE40EA0444A64508D91CEB040403F1EC
:1003C400FF306AD2A64568D9023B644443EA084038
:1003D400A0FB0293A4EB0E049C42C8469E4654D351
:1003E40051D0002E67D0B5EB080364EB0E04CB406C
:1003F40004FA07F71F43CC40C6E9007400214AE71A
:1004040002FA03FCC3F12000C1409D4024FA00F02D
:100414004FEA1C472843B1FBF7F507FB15111FFAF8
:100424008CFE020C42EA014205FB0EF1914204FAF1
:1004340003F408D91CEB020205F1FF382FD29142D4
:100444002DD9023D6244521AB2FBF7F107FB112287
:1004540080B240EA024001FB0EF2824208D91CEB52
:10046400000001F1FF3816D2824214D902396044E7
:10047400801A41EA05413AE7314630460BE77146B6
:10048400E9E61046FEE64D45ABD2B9EB020863EB54
:100494000C0E0138A5E74146EAE7034696E74546D0
:1004A400D1E7D0467DE76444023849E7023D62441F
:1004B40031E708460AE73146EDE600BF704700BF62
:1004C40080B584B000AF3B4600221A605A609A603F
:1004D400DA60214B214A1A601F4B00225A601E4BDE
:1004E40000229A601C4B00221A611B4B00221A76D0
:1004F400194B002283F82020174B0022DA62164B96
:10050400174A9A62144B0022DA60134B0122DA6113
:10051400114B002283F830200F4B01225A610E4800
:1005240001F084FC0346002B01D000F00BFD1223E4
:100534003B6001237B600323BB603B4619460648AE
:1005440001F074FD0346002B01D000F0FBFC00BF5A
:100554001037BD4680BD00BF2C02002000200140A2
:100564000100000F80B485B000AF78607B681B6821
:100574000A4A93420DD10023FB60094B5B6C084A85
:1005840043F480735364064B5B6C03F48073FB6029
:10059400FB6800BF1437BD4680BC70470020014093
:1005A4000038024080B500AF064B074A1A60054880
:1005B40002F06FF80346002B01D000F0C3FC00BF2B
:1005C40080BD00BF740200200030024080B485B0BA
:1005D40000AF78607B681B680A4A93420DD1002300
:1005E400FB60094B1B6B084A43F480531363064BAF
:1005F4001B6B03F48053FB60FB6800BF1437BD46DC
:1006040080BC7047003002400038024080B582B0A0
:1006140000AF00237B60334B1B6B324A43F48003EF
:100624001363304B1B6B03F480037B607B680023F4
:100634003B602C4B1B6B2B4A43F400131363294B75
:100644001B6B03F400133B603B68274B274A1A607B
:10065400254B00225A60244B80229A60224B4FF48F
:100664000072DA60204B4FF480621A611E4B002244
:100674005A611D4B00229A611B4B0022DA611A4B0E
:1006840000221A62184B04225A62174B03229A6200
:10069400154B0022DA62144B00221A63124802F04E
:1006A40015F80346002B01D000F04CFC0022012178
:1006B4000F2001F0B8FF0F2001F0D1FF002200212C
:1006C400382001F0B0FF382001F0C9FF00220121D9
:1006D4003B2001F0A8FF3B2001F0C1FF00BF083719
:1006E400BD4680BD003802407C02002010640240F8
:1006F40080B58AB000AF07F1140300221A605A6073
:100704009A60DA601A6100233B61504B1B6B4F4ABD
:1007140043F0040313634D4B1B6B03F004033B6171
:100724003B690023FB60494B1B6B484A43F0800341
:100734001363464B1B6B03F08003FB60FB680023D1
:10074400BB60424B1B6B414A43F0010313633F4BB5
:100754001B6B03F00103BB60BB6800237B603B4B56
:100764001B6B3A4A43F002031363384B1B6B03F0D1
:1007740002037B607B6800233B60344B1B6B334A72
:1007840043F008031363314B1B6B03F008033B6016
:100794003B68002242F227012D4802F0A6FE002207
:1007A40048F210412B4802F0A0FE012210212848F3
:1007B40002F09BFE42F237037B610123BB610023FD
:1007C400FB6100233B6207F114031946204802F041
:1007D400D9FB48F210437B610123BB610023FB6119
:1007E40000233B6207F1140319461A4802F0CAFBBE
:1007F4004DF204037B610023BB610023FB6107F11D
:1008040014031946144802F0BDFBC0237B61002386
:10081400BB610023FB6107F1140319460C4802F085
:10082400B1FB4FF480737B610223BB610023FB6146
:1008340000233B6200237B6207F114031946054839
:1008440002F0A0FB00BF2837BD4680BD003802403F
:1008540000080240000002400004024080B500AFDE
:10086400124B134A1A60114B124A5A600F4B002262
:100874009A600E4B0022DA600C4B4FF480421A61EE
:100884000A4B00225A61094B00229A61074B00224D
:10089400DA61064B00221A62044802F03FFE034666
:1008A400002B01D000F04EFB00BF80BDDC02002015
:1008B40000580040A086010080B58AB000AF78607F
:1008C40007F1140300221A605A609A60DA601A6110
:1008D4007B681B68194A93422CD100233B61184B57
:1008E4001B6B174A43F002031363154B1B6B03F096
:1008F40002033B613B694FF440637B611223BB619C
:100904000123FB6103233B6204237B6207F114038D
:1009140019460C4802F036FB0023FB60084B1B6CA5
:10092400074A43F480031364054B1B6C03F48003F0
:10093400FB60FB6800BF2837BD4680BD00580040FF
:10094400003802400004024080B588B000AF01F0D6
:10095400EDF900F087F8FFF7CBFEFFF757FE00F044
:1009640035FC00F069FC0AF021F900F09DFFFFF767
:1009740075FF00F023FB00F095FC01F0D5F80CF0B6
:100984001FFB00F021FF01F0F9F800F0E3FA00F09A
:1009940083FBFFF707FEFFF793FD0CF0A3F9012299
:1009A4002849294807F08BFB284806F08BFA07F101
:1009B4000C0300221A605A609A60DA601A613823C4
:1009C400FB6001233B6100237B6107F10C031946A3
:1009D4001F4802F0D7FA012208211D4802F085FDC4
:1009E4004FF47A7001F0FEF91A4A3B4607CA03C372
:1009F4001A70394632230922134807F0CEFA4FF40D
:100A04007A7001F0EFF900220821114802F06DFD1F
:100A1400002208210E4802F068FD0F4B01221A70D3
:100A24000E4B00221A700E4B00221A704FF4FA700B
:100A340001F0D8F9094B03221A704FF4FA7001F04F
:100A4400D1F9EDE730030020CC060020DC040020BF
:100A5400000402401CDC0008770700207507002012
:100A64007607002080B596B000AF07F12803302246
:100A7400002118460DF038F807F1140300221A601B
:100A84005A609A60DA601A613B4600221A605A6022
:100A94009A60DA601A610923BB620123FB620123B5
:100AA400FB6302233B644FF480037B641923BB6420
:100AB400C023FB6402233B6504237B6507F1280301
:100AC400184603F0C5FF0346002B01D000F03AFAA4
:100AD4000F237B610223BB610023FB614FF4A0530E
:100AE4003B624FF4A0537B6207F1140303211846C1
:100AF40004F0FCF90346002B01D000F023FA042390
:100B04003B604FF40073FB603B46184604F056FC10
:100B14000346002B01D000F015FA00224FF48001A7
:100B2400002004F0CFFA00BF5837BD4680BD000056
:100B340080B584B000AF78604C4B1B781A464C4BA0
:100B440019784C4B9954012249494B4807F0B7FA9C
:100B54004A4B01221A70454B1B78062B0FD8454B84
:100B64001B789AB2464B1B889A4204D13F4B1B78A0
:100B74000133DBB200E000233C4A137071E03B4BCD
:100B840000221A7006213B4800F0EAF80346FB8174
:100B9400FB897B73FB891B0A9BB23B73354B5B78E8
:100BA400032B27D1334B9B78002B1CD1314BDB78A3
:100BB4001F2B18D82F4B1B79002B14D12D4B5B798D
:100BC400012B10D12B4B9B797A7B9A420BD1294B69
:100BD400DB793A7B9A4206D1264BDB789BB21846E6
:100BE40000F0F2F83DE0234B5B781946032000F057
:100BF40073F936E01F4B5B78062B2BD11D4B9B788A
:100C0400002B20D11B4BDB781F2B1CD8194B9B7955
:100C14007A7B9A4217D1174BDB793A7B9A4212D1ED
:100C2400144BDB7898B2134B5B799AB2114B1B7956
:100C34009BB21B029BB213439BB2194600F004F90A
:100C440000F036F80DE00B4B5B781946032000F0FA
:100C540043F906E0074B5B781946012000F03CF9A4
:100C6400FFE700BF1037BD4680BD00BF3103002041
:100C74003003002034030020CC0600207607002037
:100C84000000002080B500AF084B1B78002B06D075
:100C9400064B1B78013BDAB2044B1A7004E000F0F7
:100CA40007F8024B88221A7000BF80BD440300205D
:100CB40080B582B000AF214B9B8B002B0ED01F4B15
:100CC40000229A831D4B00225A831C4B00221A8354
:100CD4001A4B0022DA82194B00229A82174B9B8A04
:100CE400194601200CF028F8144BDB8A194602201F
:100CF4000CF022F8114B1B8B194603200CF01CF846
:100D04000E4B5B8B194604200CF016F80C4801F0CE
:100D140081F90346FB80FB881A46920013449AB279
:100D2400FB88DB089BB213449AB2044B1A8504482F
:100D340001F0C0F800BF0837BD4680BD00000020A8
:100D44002C02002080B483B000AF03460A46FB7136
:100D54001346BB7100BF0C37BD4680BC7047000012
:100D640080B485B000AF78600B46FB70FF23FB7343
:100D7400FF23BB7311E07B685A1C7A601A78FB7BF3
:100D84005340DBB2BB81BB890D4AD25CBB7B534071
:100D9400FB73BB890B4AD35CBB73FB785A1EFA7096
:100DA400002BE8D1BB7B1B021AB2FB7B1BB21343A3
:100DB4001BB29BB218461437BD4680BC704700BFB7
:100DC4006CDC00086CDD000880B584B000AF03461D
:100DD400FB801A4B1B88DAB2194B1A70184B03228A
:100DE4005A70174B02229A70FB88144A32F8133057
:100DF4001B0A9BB2DAB2124BDA70FB880F4A32F844
:100E04001330DAB20E4B1A7105210D48FFF7A8FF13
:100E14000346FB81FB89DAB2094B5A71FB891B0A31
:100E24009BB2DAB2064B9A71322308220449054870
:100E340007F0B3F800BF1037BD4680BD00000020A6
:100E440048030020CC06002080B584B000AF0346E0
:100E54000A46FB801346BB80FB881C49BA8821F8EC
:100E640013201A4B1B88DAB2194B1A70184B06223E
:100E74005A70174B02229A70FB88144A32F81330C6
:100E84001B0A9BB2DAB2124BDA70FB880F4A32F8B3
:100E94001330DAB20E4B1A7105210D48FFF760FFCB
:100EA4000346FB81FB89DAB2094B5A71FB891B0AA1
:100EB4009BB2DAB2064B9A713223082204490548E0
:100EC40007F06BF800BF1037BD4680BD000000205E
:100ED40058030020CC06002080B584B000AF034640
:100EE4000A46FB711346BB71134B1B88DAB2134BD2
:100EF4001A70BB7963F07F03DAB2104B5A700F4A51
:100F0400FB79937003210D48FFF72AFF0346FB8109
:100F1400FB89DAB2094BDA70FB891B0A9BB2DAB29D
:100F2400064B1A71322305220449054807F035F8A7
:100F340000BF1037BD4680BD0000002068030020BC
:100F4400CC06002080B400AF014B01221A70FEE7EA
:100F54007607002080B500AF064B074A1A600548A3
:100F640004F022FB0346002B01D0FFF7EBFF00BF88
:100F740080BD00BF780300200008065080B485B00F
:100F840000AF78607B681B680A4A93420DD1002346
:100F9400FB60094B5B6B084A43F040035363064B09
:100FA4005B6B03F04003FB60FB6800BF1437BD4676
:100FB40080BC7047000806500038024080B584B0F9
:100FC40000AF3B1D00221A605A609A6000233B6008
:100FD400244B254A1A60234B00225A60214B7F225E
:100FE4009A60204BFF22DA601E4B00221A611D4BCF
:100FF40000225A611B4B00229A611A4804F0FEFA3F
:101004000346002B01D0FFF79DFF00233B71002313
:101014007B710023BB710023BB600023FB603B1D7D
:10102400002219460F4804F073FB0346002B01D03D
:10103400FFF788FF01233B7001237B700123BB7002
:101044000023FB703B4600221946064804F016FCB8
:101054000346002B01D0FFF775FF00BF1037BD46D4
:1010640080BD00BF880300200028004080B483B006
:1010740000AF78607B681B68054A934202D1054B38
:1010840001221A6000BF0C37BD4680BC704700BF08
:10109400002800403C0E474280B400AF0C4B0D4A80
:1010A4001A600B4B00225A60094B00229A60084BCD
:1010B4000022DA60064B4FF400621A61044B0022EE
:1010C4005A61034B30229A6100BFBD4680BC704711
:1010D400A8030020002C014080B58AB000AF7860DE
:1010E40007F1140300221A605A609A60DA601A61E8
:1010F4007B681B68314A93425BD100233B61304BD0
:101104005B6C2F4A43F4006353642D4B5B6C03F414
:1011140000633B613B690023FB60294B1B6B284A3E
:1011240043F004031363264B1B6B03F00403FB60BF
:10113400FB680023BB60224B1B6B214A43F008036E
:1011440013631F4B1B6B03F00803BB60BB684FF4B6
:1011540070637B610223BB610123FB6103233B6258
:101164000C237B6207F114031946164801F00AFFA9
:101174004FF480537B610223BB610023FB61032393
:101184003B620C237B6207F1140319460D4801F0FE
:10119400F9FE04237B610223BB610123FB6103236A
:1011A4003B620C237B6207F114031946064801F0E5
:1011B400E9FE00BF2837BD4680BD00BF002C0140BA
:1011C4000038024000080240000C024080B500AF25
:1011D400174B184A1A60164B4FF482725A60144B1C
:1011E40000229A60124B0022DA60114B00221A612D
:1011F4000F4B00225A610E4B4FF400729A610C4B54
:101204002022DA610A4B00221A62094B00225A6238
:10121400074B00229A62064B0A22DA62044805F060
:10122400C8FD0346002B01D0FFF78CFE00BF80BD34
:101234002C0400200030014080B500AF174B184A41
:101244001A60164B4FF482725A60144B00229A6053
:10125400124B0022DA60114B00221A610F4B00225C
:101264005A610E4B4FF400729A610C4B2022DA61E2
:101274000A4B00221A62094B00225A62074B0022D1
:101284009A62064B0A22DA62044805F092FD03468C
:10129400002B01D0FFF756FE00BF80BD8404002060
:1012A4000038004080B500AF174B184A1A60164B3F
:1012B4004FF482725A60144B00229A60124B00223F
:1012C400DA60114B00221A610F4B00225A610E4B57
:1012D4004FF400729A610C4B1822DA610A4B002217
:1012E4001A62094B00225A62074B00229A62064B8B
:1012F4000A22DA62044805F05CFD0346002B01D0A3
:10130400FFF720FE00BF80BDDC040020003C00404D
:1013140080B58EB000AF786007F1240300221A6014
:101324005A609A60DA601A617B681B68894A934242
:101334005BD100233B62884B5B6C874A43F4805348
:101344005364854B5B6C03F480533B623B6A00231C
:10135400FB61814B1B6B804A43F0010313637E4B9B
:101364001B6B03F00103FB61FB69A0237B62022377
:10137400BB620023FB6203233B6305237B6307F10A
:1013840024031946754801F0FDFD754B754A1A6032
:10139400734B4FF0C0625A60714B40229A60704B9D
:1013A4000022DA606E4B4FF480621A616C4B0022AB
:1013B4005A616B4B00229A61694B0022DA61684BD7
:1013C4004FF440321A62664B00225A62644801F0BC
:1013D4007DF90346002B01D0FFF7B4FD7B68604A1A
:1013E4009A645F4A7B689363AFE07B681B685E4ADC
:1013F400934279D10023BB61574B1B6C564A43F48B
:1014040080431364544B1B6C03F48043BB61BB697E
:1014140000237B61504B1B6B4F4A43F0040313635F
:101424004D4B1B6B03F004037B617B6900233B6121
:10143400494B1B6B484A43F002031363464B1B6B37
:1014440003F002033B613B6908237B620223BB6216
:101454000023FB6203233B6305237B6307F124031F
:101464001946424801F08EFD4FF400537B6202237B
:10147400BB620023FB6203233B6305237B6307F109
:10148400240319463A4801F07DFD3A4B3A4A1A6062
:10149400384B00225A60374B40229A60354B002269
:1014A400DA60344B4FF480621A61324B00225A6185
:1014B400304B00229A612F4B0022DA612D4B4FF4FE
:1014C40040321A622B4B00225A622A4801F0FEF87D
:1014D4000346002B01D0FFF735FD7B68254A9A644B
:1014E400244A7B68936330E07B681B68234A9342F9
:1014F4002BD10023FB60184B1B6C174A43F40043A9
:101504001364154B1B6C03F40043FB60FB6800235E
:10151400BB60114B1B6B104A43F0020313630E4B69
:101524001B6B03F00203BB60BB6838237B6202239E
:10153400BB620023FB6203233B6306237B6307F147
:10154400240319460A4801F01DFD00BF3837BD4683
:1015540080BD00BF0030014000380240000002405E
:10156400340500205864024000380040000802405E
:10157400000402409405002070600240003C0040DA
:1015840080B582B000AF78607B681B681F4A9342C5
:101594000FD11F4B5B6C1E4A23F480535364A0216C
:1015A4001C4801F08DFE7B689B6C184601F03CF9E9
:1015B40028E07B681B68184A934214D1144B1B6CB7
:1015C400134A23F4804313640821144801F078FE7D
:1015D4004FF40051124801F073FE7B689B6C18466F
:1015E40001F022F90EE07B681B680E4A934209D190
:1015F400074B1B6C064A23F4004313643821084844
:1016040001F05EFE00BF0837BD4680BD00300140DA
:101614000038024000000240003800400008024048
:1016240000040240003C004080B483B000AF0023BB
:101634007B600F4B5B6C0E4A43F4804353640C4B4A
:101644005B6C03F480437B607B6800233B60084B46
:101654001B6C074A43F080531364054B1B6C03F067
:1016640080533B603B6800BF0C37BD4680BC70476D
:101674000038024080B400AFFEE780B400AFFEE75C
:1016840080B400AFFEE780B400AFFEE780B400AFE3
:10169400FEE780B400AF00BFBD4680BC704780B495
:1016A40000AF00BFBD4680BC704780B400AF00BF30
:1016B400BD4680BC704780B500AF0BF01FFB00BF78
:1016C40080BD000080B500AF024801F0F5F900BF0D
:1016D40080BD00BF9405002080B500AF024805F02E
:1016E40021FF00BF80BD00BFF805002080B500AF1A
:1016F400024805F017FF00BF80BD00BF4006002070
:1017040080B500AF024806F00BFD00BF80BD00BFEE
:10171400CC06002080B500AF024801F0CDF900BF2F
:1017240080BD00BF7C02002080B500AF024801F0FC
:10173400C3F900BF80BD00BF3405002080B500AFF1
:10174400024802F06EF900BF80BD00BFB033002034
:1017540080B586B000AF7860144A154BD31A7B610C
:101764007B693B61134B1B68002B02D1114B124A5E
:101774001A60104B1A687B6813443A699A4207D27C
:101784000CF0CAF903460C221A604FF0FF3309E04B
:10179400084B1B68FB60074B1A687B681344054AB7
:1017A4001360FB6818461837BD4680BD0000022050
:1017B40000040000F4050020F838002080B400AFD5
:1017C40000BFBD4680BC704780B58AB000AF07F14A
:1017D400200300221A605A603B1D00221A605A60DE
:1017E4009A60DA601A615A619A612D4B2D4A1A6027
:1017F4002B4B30225A602A4B00229A60284B4FF41C
:101804007A72DA60264B00221A61254B00229A6113
:10181400234805F06FFD0346002B01D0FFF792FB30
:1018240000233B6200237B6207F1200319461C4816
:1018340006F0DAFA0346002B01D0FFF783FB60239E
:101844007B600023BB600023FB6000237B613B1DA6
:1018540000221946124805F06DFF0346002B01D003
:10186400FFF770FB3B1D082219460D4805F062FF87
:101874000346002B01D0FFF765FB3B1D0C221946E4
:10188400074805F057FF0346002B01D0FFF75AFB2A
:10189400034800F0C9F800BF2837BD4680BD00BF2B
:1018A400F80500200004004080B58AB000AF07F1BD
:1018B400200300221A605A603B1D00221A605A60FD
:1018C4009A60DA601A615A619A61324B324A1A603C
:1018D400304B30225A602F4B00229A602D4B4FF42C
:1018E4007A72DA602B4B00221A612A4B00229A6129
:1018F400284805F0FFFC0346002B01D0FFF722FB2C
:1019040000233B6200237B6207F120031946214830
:1019140006F06AFA0346002B01D0FFF713FB60239D
:101924007B600023BB600023FB6000237B613B1DC5
:1019340000221946174805F0FDFE0346002B01D08E
:10194400FFF700FB3B1D04221946124805F0F2FE86
:101954000346002B01D0FFF7F5FA3B1D0822194678
:101964000C4805F0E7FE0346002B01D0FFF7EAFA26
:101974003B1D0C221946074805F0DCFE0346002BEC
:1019840001D0FFF7DFFA034800F04EF800BF283714
:10199400BD4680BD400600200008004080B584B0EC
:1019A40000AF78607B681B681C4A934216D1002301
:1019B400FB601B4B1B6C1A4A43F002031364184B65
:1019C4001B6C03F00203FB60FB68002200211D2056
:1019D40000F029FE1D2000F042FE1AE07B681B681F
:1019E400104A934215D10023BB600D4B1B6C0C4A6B
:1019F40043F0040313640A4B1B6C03F00403BB6041
:101A0400BB68002200211E2000F00DFE1E2000F005
:101A140026FE00BF1037BD4680BD00BF0004004055
:101A2400003802400008004080B58AB000AF7860FA
:101A340007F1140300221A605A609A60DA601A618E
:101A44007B681B68334A93423CD100233B61324B91
:101A54001B6B314A43F0010313632F4B1B6B03F0E1
:101A640001033B613B690023FB602B4B1B6B2A4A40
:101A740043F002031363284B1B6B03F00203FB6068
:101A8400FB6840237B610223BB610023FB610023CD
:101A94003B6202237B6207F1140319461F4801F0DD
:101AA40071FA03237B610223BB610023FB610023E2
:101AB4003B6202237B6207F114031946184801F0C4
:101AC40061FA23E07B681B68164A93421ED1002307
:101AD400BB60114B1B6B104A43F0020313630E4BA4
:101AE4001B6B03F00203BB60BB684FF470737B6134
:101AF4000223BB610023FB6100233B6202237B6260
:101B040007F114031946064801F03CFA00BF2837D0
:101B1400BD4680BD00040040003802400000024081
:101B2400000402400008004080B500AF114B124A87
:101B34001A60104B4FF416525A600E4B00229A60F2
:101B44000C4B0022DA600B4B00221A61094B0C2269
:101B54005A61084B00229A61064B0022DA6105485B
:101B640006F0CEF90346002B01D0FFF7EBF900BFD6
:101B740080BD00BF88060020004C004080B500AF47
:101B8400114B124A1A60104B4FF416525A600E4B06
:101B940000229A600C4B0022DA600B4B00221A617F
:101BA400094B0C225A61084B00229A61064B002211
:101BB400DA61054806F0A4F90346002B01D0FFF7CB
:101BC400C1F900BF80BD00BFCC0600200044004026
:101BD40080B58CB000AF786007F11C0300221A6056
:101BE4005A609A60DA601A617B681B68364A9342CD
:101BF4002CD10023BB61354B1B6C344A43F40023C6
:101C04001364324B1B6C03F40023BB61BB690023D8
:101C14007B612E4B1B6B2D4A43F0010313632B4B4B
:101C24001B6B03F001037B617B690323FB610223CC
:101C34003B6201237B620323BB620823FB6207F13F
:101C44001C031946224801F09DF938E07B681B68A3
:101C5400204A934233D100233B611C4B1B6C1B4A2B
:101C640043F400331364194B1B6C03F400333B61DE
:101C74003B690023FB60154B1B6B144A43F00103C3
:101C84001363124B1B6B03F00103FB60FB680C2313
:101C9400FB6102233B6200237B620323BB620723B5
:101CA400FB6207F11C031946094801F06BF9002295
:101CB4000021262000F0B7FC262000F0D0FC00BF55
:101CC4003037BD4680BD00BF004C004000380240A4
:101CD4000000024000440040DFF834D00D480E49B3
:101CE4000E4A002302E0D458C4500433C4188C4272
:101CF400F9D30B4A0B4C002301E013600432A242D7
:101D0400FBD3FFF75BFD0BF00DFFFEF71DFE7047E5
:101D1400000002200000002010020020B0DE0008B5
:101D240010020020F8380020FEE7000080B500AF64
:101D34000E4B1B680D4A43F4007313600B4B1B6876
:101D44000A4A43F480631360084B1B68074A43F450
:101D540080731360032000F05BFC042000F008F89B
:101D6400FFF762FC0023184680BD00BF003C024020
:101D740080B582B000AF7860124B1A68124B1B78A2
:101D840019464FF47A73B3FBF1F3B2FBF3F318463D
:101D940000F073FC0346002B01D001230EE07B68A6
:101DA4000F2B0AD8002279684FF0FF3000F03BFC7B
:101DB400064A7B681360002300E0012318460837B5
:101DC400BD4680BD400000204800002044000020A3
:101DD40080B400AF024B1B681846BD4680BC7047F8
:101DE4001007002080B584B000AF7860FFF7F0FFE3
:101DF400B8607B68FB60FB68B3F1FF3F05D00A4B1A
:101E04001B781A46FB681344FB6000BFFFF7E0FF32
:101E14000246BB68D31AFA689A42F7D800BF00BFDB
:101E24001037BD4680BD00BF4800002080B584B097
:101E340000AF78600023FB737B68002B01D1012382
:101E440033E07B681B6C002B09D17868FEF78AFBB2
:101E54007B6800225A647B68002283F83C207B68FC
:101E64001B6C03F01003002B18D17B681B6C23F44C
:101E7400885323F0020343F002027B681A647868F3
:101E840000F0F4F97B6800225A647B681B6C23F031
:101E9400030343F001027B681A6401E00123FB732E
:101EA4007B68002283F83C20FB7B18461037BD4634
:101EB40080BD000080B485B000AF78600023FB6073
:101EC4007B6893F83C30012B01D1022395E07B68B9
:101ED400012283F83C207B681B689B6803F00103A4
:101EE400012B18D07B681B689A687B681B6842F0DA
:101EF40001029A60434B1B68434AA2FB03239A0CDA
:101F040013465B001344FB6002E0FB68013BFB608B
:101F1400FB68002BF9D17B681B689B6803F0010305
:101F2400012B5DD17B681B6C23F4E06323F0010378
:101F340043F480727B681A647B681B685B6803F4F3
:101F44008063002B07D07B681B6C23F4405343F45D
:101F540080527B681A647B681B6C03F48053B3F56E
:101F6400805F06D17B685B6C23F006027B685A6451
:101F740002E07B6800225A647B68002283F83C20DC
:101F84007B681B686FF022021A60204B5B6803F0C9
:101F94001F03002B0FD17B681B689B6803F0405321
:101FA400002B29D17B681B689A687B681B6842F008
:101FB40080429A6020E07B681B68154A93421BD1DB
:101FC4007B681B689B6803F04053002B14D17B682B
:101FD4001B689A687B681B6842F080429A600BE039
:101FE4007B681B6C43F010027B681A647B685B6C33
:101FF40043F001027B685A64002318461437BD4637
:1020040080BC70474000002083DE1B430023014056
:102014000020014080B483B000AF78607B681B6807
:10202400DB6C18460C37BD4680BC704780B485B065
:1020340000AF786039600023FB607B6893F83C3024
:10204400012B01D1022303E17B68012283F83C20A8
:102054003B681B68092B25D97B681B68D9683B68DA
:102064001B689BB21A4613465B0013441E3B0722AF
:1020740002FA03F3DA437B681B680A40DA607B6880
:102084001B68D9683B689A683B681B689BB2184612
:1020940003465B0003441E3B9A407B681B680A436B
:1020A400DA6022E07B681B6819693B681B689BB295
:1020B4001A4613465B001344072202FA03F3DA4379
:1020C4007B681B680A401A617B681B6819693B6856
:1020D4009A683B681B689BB2184603465B0003443E
:1020E4009A407B681B680A431A613B685B68062B4D
:1020F40024D87B681B68596B3B685A6813469B005D
:102104001344053B1F2202FA03F3DA437B681B687E
:102114000A405A637B681B68596B3B681B689BB217
:1021240018463B685A6813469B001344053B00FA63
:1021340003F27B681B680A435A634CE03B685B68A4
:102144000C2B24D87B681B68196B3B685A681346B0
:102154009B001344233B1F2202FA03F3DA437B68F8
:102164001B680A401A637B681B68196B3B681B6811
:102174009BB218463B685A6813469B001344233BA2
:1021840000FA03F27B681B680A431A6323E07B6846
:102194001B68D96A3B685A6813469B001344413B49
:1021A4001F2202FA03F3DA437B681B680A40DA62EF
:1021B4007B681B68D96A3B681B689BB218463B68FE
:1021C4005A6813469B001344413B00FA03F27B68B0
:1021D4001B680A43DA627B681B68204A934209D170
:1021E4003B681B68122B05D11D4B5B681C4A43F4EA
:1021F400800353607B681B68184A934223D13B6871
:102204001B68102B03D03B681B68112B1BD1144B8C
:102214005B68134A43F4000353603B681B68102B4C
:1022240011D1104B1B68104AA2FB03239A0C1346CE
:102234009B0013445B00FB6002E0FB68013BFB6016
:10224400FB68002BF9D17B68002283F83C20002333
:1022540018461437BD4680BC704700BF00200140BB
:10226400002301404000002083DE1B4380B485B07E
:1022740000AF78607E4B5B687D4A23F44033536043
:102284007B4B5A687B685B68794913434B607B6876
:102294001B685A687B681B6822F480725A607B68EA
:1022A4001B6859687B681B691A027B681B680A43B0
:1022B4005A607B681B685A687B681B6822F040720E
:1022C4005A607B681B6859687B689A687B681B68DE
:1022D4000A435A607B681B689A687B681B6822F40F
:1022E40000629A607B681B6899687B68DA687B681F
:1022F4001B680A439A607B689B6A5E4A934222D0B9
:102304007B681B689A687B681B6822F070629A601D
:102314007B681B6899687B689A6A7B681B680A43B8
:102324009A607B681B689A687B681B6822F040523D
:102334009A607B681B6899687B68DA6A7B681B68AB
:102344000A439A600FE07B681B689A687B681B6885
:1023540022F070629A607B681B689A687B681B68CD
:1023640022F040529A607B681B689A687B681B68FD
:1023740022F002029A607B681B6899687B681B7E66
:102384005A007B681B680A439A607B6893F8203084
:10239400002B27D07B681B685A687B681B6842F453
:1023A40000625A607B681B685A687B681B6822F469
:1023B40060425A607B685B6A013B4FF46042FA609A
:1023C400FA6892FAA2F2BA60BA68B2FA82F2D2B2A7
:1023D40003FA02F17B681B685A687B681B680A432E
:1023E4005A6007E07B681B685A687B681B6822F4A4
:1023F40000625A607B681B68DA6A7B681B6822F497
:102404007002DA627B681B68D96A7B68DB69013B0E
:102414001A057B681B680A43DA627B681B689A6842
:102424007B681B6822F400729A607B681B68996859
:102434007B6893F830305A027B681B680A439A60C1
:102444007B681B689A687B681B6822F480629A60C8
:102454007B681B6899687B685B699A027B681B6868
:102464000A439A6000BF1437BD4680BC704700BF62
:10247400002301400100000F80B485B000AF7860F4
:102484007B6803F00703FB600C4BDB68BB60BA6836
:102494004FF6FF031340BB60FB681A02BB6813438B
:1024A40043F0BF6343F40033BB60044ABB68D360AA
:1024B40000BF1437BD4680BC704700BF00ED00E08C
:1024C40080B400AF044BDB681B0A03F00703184613
:1024D400BD4680BC704700BF00ED00E080B483B00F
:1024E40000AF0346FB7197F90730002B0BDBFB7938
:1024F40003F01F02064997F907305B09012000FA2F
:1025040002F241F8232000BF0C37BD4680BC70475F
:1025140000E100E080B483B000AF03463960FB7192
:1025240097F90730002B0ADB3B68DAB20C4997F9BC
:1025340007301201D2B20B4483F800230AE03B684F
:10254400DAB20849FB7903F00F03043B1201D2B25B
:102554000B441A7600BF0C37BD4680BC704700BFE1
:1025640000E100E000ED00E080B489B000AFF86065
:10257400B9607A60FB6803F00703FB61FB69C3F190
:102584000703042B28BF0423BB61FB690433062B18
:1025940002D9FB69033B00E000237B614FF0FF326B
:1025A400BB6902FA03F3DA43BB681A407B699A40B9
:1025B4004FF0FF317B6901FA03F3D9437B680B4089
:1025C400134318462437BD4680BC704780B582B09B
:1025D40000AF78607B68013BB3F1807F01D30123B6
:1025E4000FE00A4A7B68013B53600F214FF0FF3034
:1025F400FFF790FF054B00229A60044B07221A60F4
:10260400002318460837BD4680BD00BF10E000E037
:1026140080B582B000AF78607868FFF72DFF00BF07
:102624000837BD4680BD80B586B000AF0346B960AB
:102634007A60FB7300237B61FFF742FF78617A685D
:10264400B9687869FFF790FF024697F90F30114691
:102654001846FFF75FFF00BF1837BD4680BD80B541
:1026640082B000AF0346FB7197F907301846FFF7B5
:1026740035FF00BF0837BD4680BD80B582B000AFCE
:1026840078607868FFF7A2FF034618460837BD460E
:1026940080BD80B582B000AF78607B68002B01D12B
:1026A40001230EE07B685B79DBB2002B05D17B68EC
:1026B40000221A717868FDF789FF7B6801225A713C
:1026C400002318460837BD4680BD000080B586B09B
:1026D40000AF786000237B61FFF77AFB38617B6889
:1026E400002B01D1012399E07B68022283F8352075
:1026F4007B68002283F834207B681B681A687B6837
:102704001B6822F001021A600FE0FFF761FB02462A
:102714003B69D31A052B08D97B6820225A657B684C
:10272400032283F83520032378E07B681B681B6849
:1027340003F00103002BE8D17B681B681B687B61F5
:102744007A69384B13407B617B685A687B689B6865
:102754001A437B68DB681A437B681B691A437B68EE
:102764005B691A437B689B691A437B68DB691A437C
:102774007B681B6A13437A6913437B617B685B6ADA
:10278400042B07D17B68DA6A7B681B6B13437A6975
:1027940013437B617B681B687A691A607B681B68DA
:1027A4005B697B617B6923F007037B617B685B6A00
:1027B4007A6913437B617B685B6A042B17D17B685E
:1027C4009B6A7A6913437B617B68DB6A002B0ED0BA
:1027D400786800F05DFB0346002B08D07B6840223C
:1027E4005A657B68012283F83520012316E07B6853
:1027F4001B687A695A61786800F016FB0346FB602F
:102804007B68DB6D3F229A40FB689A607B680022FC
:102814005A657B68012283F835200023184618374F
:10282400BD4680BD3F8010F080B584B000AF7860B5
:102834007B68002B01D1012350E07B6893F835308D
:10284400DBB2022B01D1022348E07B681B681A68C3
:102854007B681B6822F001021A607B681B680022F7
:102864001A607B681B6800225A607B681B68002220
:102874009A607B681B680022DA607B681B68002210
:102884001A617B681B6821225A61786800F0CCFACF
:102894000346FB607B680022DA637B6800221A64CB
:1028A4007B6800225A647B6800229A647B68002259
:1028B400DA647B6800221A657B68DB6D3F229A40EC
:1028C400FB689A607B6800225A657B68002283F863
:1028D40035207B68002283F8342000231846103703
:1028E400BD4680BD80B586B000AFF860B9607A603F
:1028F4003B600023FB75FB689B6D3B61FB6893F8B1
:102904003430012B01D1022340E0FB68012283F81B
:102914003420FB6893F83530DBB2012B2FD1FB68F0
:10292400022283F83520FB6800225A653B687A68E6
:10293400B968F86800F04AFAFB68DB6D3F229A40F8
:102944003B699A60FB681B681A68FB681B6842F065
:1029540016021A60FB681B6C002B07D0FB681B680F
:102964001A68FB681B6842F008021A60FB681B685F
:102974001A68FB681B6842F001021A6005E0FB68F4
:10298400002283F834200223FB75FB7D1846183798
:10299400BD4680BD80B584B000AF78607B689B6D18
:1029A400FB60FFF715FAB8607B6893F83530DBB24B
:1029B400022B08D07B6880225A657B68002283F84A
:1029C4003420012352E07B681B681A687B681B680B
:1029D40022F016021A607B681B685A697B681B68C0
:1029E40022F080025A617B681B6C002B03D17B6848
:1029F4009B6C002B07D07B681B681A687B681B687C
:102A040022F008021A607B681B681A687B681B68DE
:102A140022F001021A6013E0FFF7DAF90246BB68FC
:102A2400D31A052B0CD97B6820225A657B680322B4
:102A340083F835207B68002283F83420032315E0D3
:102A44007B681B681B6803F00103002BE4D17B68DF
:102A5400DB6D3F229A40FB689A607B68012283F811
:102A640035207B68002283F8342000231846103771
:102A7400BD4680BD80B483B000AF78607B6893F8B6
:102A84003530DBB2022B04D07B6880225A650123E7
:102A94000CE07B68052283F835207B681B681A6884
:102AA4007B681B6822F001021A60002318460C3769
:102AB400BD4680BC7047000080B586B000AF78602A
:102AC4000023BB608E4B1B688E4AA2FB03239B0A28
:102AD4007B617B689B6D3B613B691B68FB607B682A
:102AE400DB6D08229A40FB681340002B1AD07B68E8
:102AF4001B681B6803F00403002B13D07B681B685E
:102B04001A687B681B6822F004021A607B68DB6D1C
:102B140008229A403B699A607B685B6D43F001022E
:102B24007B685A657B68DB6D01229A40FB68134021
:102B3400002B12D07B681B685B6903F08003002BB9
:102B44000BD07B68DB6D01229A403B699A607B68FD
:102B54005B6D43F002027B685A657B68DB6D04227F
:102B64009A40FB681340002B12D07B681B681B68DB
:102B740003F00203002B0BD07B68DB6D04229A4028
:102B84003B699A607B685B6D43F004027B685A651D
:102B94007B68DB6D10229A40FB681340002B43D006
:102BA4007B681B681B6803F00803002B3CD07B6820
:102BB400DB6D10229A403B699A607B681B681B6836
:102BC40003F48023002B18D07B681B681B6803F474
:102BD4000023002B08D17B681B6C002B24D07B685E
:102BE4001B6C786898471FE07B689B6C002B1BD09C
:102BF4007B689B6C7868984716E07B681B681B6849
:102C040003F48073002B07D17B681B681A687B6808
:102C14001B6822F008021A607B681B6C002B03D02F
:102C24007B681B6C786898477B68DB6D20229A4030
:102C3400FB681340002B00F08F807B681B681B68C7
:102C440003F01003002B00F087807B68DB6D2022EB
:102C54009A403B699A607B6893F83530DBB2052B68
:102C640036D17B681B681A687B681B6822F01602E1
:102C74001A607B681B685A697B681B6822F08002B3
:102C84005A617B681B6C002B03D17B689B6C002B07
:102C940007D07B681B681A687B681B6822F00802EF
:102CA4001A607B68DB6D3F229A403B699A607B68BF
:102CB400012283F835207B68002283F834207B6866
:102CC4001B6D002B7ED07B681B6D7868984779E07C
:102CD4007B681B681B6803F48023002B1DD07B6872
:102CE4001B681B6803F40023002B0DD17B685B6C0D
:102CF400002B31D07B685B6C786898472CE000BF70
:102D040040000020B5814E1B7B68DB6B002B23D079
:102D14007B68DB6B786898471EE07B681B681B68E0
:102D240003F48073002B0FD17B681B681A687B68DF
:102D34001B6822F010021A607B68012283F8352098
:102D44007B68002283F834207B68DB6B002B03D084
:102D54007B68DB6B786898477B685B6D002B32D0AF
:102D64007B685B6D03F00103002B22D07B68052296
:102D740083F835207B681B681A687B681B6822F01F
:102D840001021A60BB680133BB607A699A4207D3B7
:102D94007B681B681B6803F00103002BF2D100E081
:102DA40000BF7B68012283F835207B68002283F80A
:102DB40034207B68DB6C002B05D07B68DB6C786887
:102DC400984700E000BF1837BD4680BD80B485B089
:102DD40000AFF860B9607A603B60FB681B681A68F2
:102DE400FB681B6822F480221A60FB681B683A683F
:102DF4005A60FB689B68402B08D1FB681B687A68A3
:102E04009A60FB681B68BA68DA6007E0FB681B68B5
:102E1400BA689A60FB681B687A68DA6000BF143786
:102E2400BD4680BC7047000080B485B000AF7860B8
:102E34007B681B68DBB2103B134AA2FB03231B090C
:102E4400FB60124AFB6813441B781A467B68DA65F8
:102E5400FB68032B09D97B681B6823F47F7323F079
:102E640003031A1D7B689A6507E07B681B6823F4DB
:102E74007F7323F003037A6893657B689B6D184620
:102E84001437BD4680BC7047ABAAAAAA84DE0008EA
:102E940080B485B000AF78600023FB737B689B6AC5
:102EA400BB607B689B69002B1FD1BB68032B56D882
:102EB40001A252F823F000BFCD2E0008DF2E000837
:102EC400CD2E0008632F00087B68DB6A03F0807353
:102ED400002B46D00123FB7343E07B68DB6AB3F12C
:102EE400C07F40D10123FB733DE07B689B69B3F550
:102EF400005F21D1BB68032B37D801A252F823F01D
:102F0400152F00081B2F0008152F00082D2F00086F
:102F14000123FB7330E07B68DB6A03F08073002BD2
:102F240025D00123FB7322E07B68DB6AB3F1C07F09
:102F34001FD10123FB731CE0BB68022B03D9BB68C0
:102F4400032B03D018E00123FB7315E07B68DB6AD5
:102F540003F08073002B0ED00123FB730BE000BF42
:102F64000AE000BF08E000BF06E000BF04E000BFC5
:102F740002E000BF00E000BFFB7B18461437BD46EB
:102F840080BC704780B487B000AF7860396000239C
:102F94007B616FE13B681A6801217B6901FA03F3E5
:102FA4001340FB60FB68002B00F061813B685B68A9
:102FB40003F00303012B05D03B685B6803F00303B4
:102FC400022B30D17B689B683B617B695B000322E9
:102FD40002FA03F3DB433A6913403B613B68DA6866
:102FE4007B695B0002FA03F33A6913433B617B6834
:102FF4003A699A607B685B683B6101227B6902FAEB
:1030040003F3DB433A6913403B613B685B681B098C
:1030140003F001027B6902FA03F33A6913433B614B
:103024007B683A695A603B685B6803F00303032BCF
:1030340017D07B68DB683B617B695B00032202FA83
:1030440003F3DB433A6913403B613B689A687B694D
:103054005B0002FA03F33A6913433B617B683A6904
:10306400DA603B685B6803F00303022B23D17B69BE
:10307400DA087B68083253F822303B617B6903F03D
:1030840007039B000F2202FA03F3DB433A69134060
:103094003B613B681A697B6903F007039B0002FAF2
:1030A40003F33A6913433B617B69DA087B680832AE
:1030B400396943F822107B681B683B617B695B00BC
:1030C400032202FA03F3DB433A6913403B613B6892
:1030D4005B6803F003027B695B0002FA03F33A695D
:1030E40013433B617B683A691A603B685B6803F48D
:1030F4004033002B00F0BB800023BB60644B5B6C4F
:10310400634A43F480435364614B5B6C03F4804330
:10311400BB60BB685F4A7B699B08023352F823306B
:103124003B617B6903F003039B000F2202FA03F364
:10313400DB433A6913403B617B68574A934231D081
:103144007B68564A93422BD07B68554A934225D0DC
:103154007B68544A93421FD07B68534A934219D0E8
:103164007B68524A934213D07B68514A93420DD0F4
:103174007B68504A934207D07B684F4A934201D1FF
:10318400082310E009230EE007230CE006230AE0DD
:10319400052308E0042306E0032304E0022302E0FD
:1031A400012300E000237A6902F0030292009340B5
:1031B4001A463B6913433B6136497B699B080233DA
:1031C4003A6941F823203D4B1B683B61FB68DB43B4
:1031D4003A6913403B613B685B6803F48033002B1E
:1031E40003D03A69FB6813433B61344A3B6913607B
:1031F400324B5B683B61FB68DB433A6913403B61DC
:103204003B685B6803F40033002B03D03A69FB6826
:1032140013433B61294A3B695360284B9B683B61DC
:10322400FB68DB433A6913403B613B685B6803F42A
:103234008013002B03D03A69FB6813433B611F4A98
:103244003B6993601D4BDB683B61FB68DB433A6978
:1032540013403B613B685B6803F40013002B03D00D
:103264003A69FB6813433B61144A3B69D3607B6949
:1032740001337B613B681A687B6922FA03F3002BF4
:103284007FF488AE00BF00BF1C37BD4680BC7047CA
:1032940000380240003801400000024000040240AF
:1032A40000080240000C02400010024000140240DA
:1032B40000180240001C024000200240003C014073
:1032C40080B487B000AF7860396000237B61D1E0BF
:1032D40001227B6902FA03F33A6813403B613B69BC
:1032E400002B00F0C4806A4A7B699B08023352F8C1
:1032F4002330FB607B6903F003039B000F2202FA77
:1033040003F3FA681340FB607B68624A934231D04E
:103314007B68614A93422BD07B68604A934225D0F4
:103324007B685F4A93421FD07B685E4A934219D000
:103334007B685D4A934213D07B685C4A93420DD00C
:103344007B685B4A934207D07B685A4A934201D117
:10335400082310E009230EE007230CE006230AE00B
:10336400052308E0042306E0032304E0022302E02B
:10337400012300E000237A6902F00302920003FAB9
:1033840002F2FB689A4232D14B4B1A683B69DB4329
:10339400494913400B60484B5A683B69DB43464933
:1033A40013404B60444B9A683B69DB4342491340EA
:1033B4008B60414BDA683B69DB433F491340CB6088
:1033C4007B6903F003039B000F2202FA03F3FB6003
:1033D4002F4A7B699B08023352F82310FB68DA43B7
:1033E4002B487B699B080A40023340F823207B6802
:1033F4001A687B695B00032101FA03F3DB431A407B
:103404007B681A607B69DA087B68083253F82210FB
:103414007B6903F007039B000F2202FA03F3DB43EB
:103424007A69D20819407B68083243F822107B6815
:10343400DA687B695B00032101FA03F3DB431A407A
:103444007B68DA607B685A6801217B6901FA03F3BF
:10345400DB431A407B685A607B689A687B695B002F
:10346400032101FA03F3DB431A407B689A607B690A
:1034740001337B613A687B6922FA03F3002B7FF402
:1034840027AF00BF00BF1C37BD4680BC704700BFDC
:1034940000380140000002400004024000080240DD
:1034A400000C0240001002400014024000180240C8
:1034B400001C024000200240003C014080B485B062
:1034C40000AF78600B467B807B681A697B88134069
:1034D400002B02D00123FB7301E00023FB73FB7B71
:1034E40018461437BD4680BC704780B483B000AF23
:1034F40078600B467B8013467B707B78002B03D06F
:103504007A887B689A6103E07B881A047B689A61F5
:1035140000BF0C37BD4680BC7047000080B584B046
:1035240000AF78607B68002B01D101232BE17B681D
:1035340093F83D30DBB2002B06D17B68002283F880
:103544003C207868FDF7B8F97B68242283F83D2095
:103554007B681B681A687B681B6822F001021A608A
:103564007B681B681A687B681B6842F400421A6017
:103574007B681B681A687B681B6822F400421A6027
:1035840001F0D8FEF8607B685B68814A934207D8F3
:10359400FB68804A934294BF01230023DBB206E018
:1035A400FB687D4A934294BF01230023DBB2002BC6
:1035B40001D00123E7E0FB68784AA2FB03239B0CBC
:1035C400BB607B681B685B6823F03F017B681B68FA
:1035D400BA680A435A607B681B681B6A23F03F0180
:1035E4007B685B686A4A934202D8BB68013309E08E
:1035F400BB684FF4967202FB03F3694AA2FB0323F0
:103604009B0901337A6812680B4313627B681B6859
:10361400DB6923F44F4222F0FF027B685B685C495C
:103624008B4219D8FB68591E7B685B685B00B1FB51
:10363400F3F3591C40F6FC730B40002B0AD0FB68D3
:10364400591E7B685B685B00B1FBF3F30133C3F382
:103654000B0351E004234FE07B689B68002B11D1DE
:10366400FB68581E7B6859680B465B000B44B0FB33
:10367400F3F30133C3F30B03002B0CBF012300232B
:10368400DBB212E0FB68581E7B6859680B469B004E
:103694000B4499000B44B0FBF3F30133C3F30B0366
:1036A400002B0CBF01230023DBB2002B01D001232C
:1036B40022E07B689B68002B0ED1FB68581E7B6858
:1036C40059680B465B000B44B0FBF3F30133C3F3BF
:1036D4000B0343F400430FE0FB68581E7B685968F2
:1036E4000B469B000B4499000B44B0FBF3F30133EE
:1036F400C3F30B0343F44043796809681343CB6174
:103704007B681B681B6823F0C0017B68DA697B68EF
:103714001B6A1A437B681B680A431A607B681B6830
:103724009B6823F4034323F0FF037A6811697A68E2
:10373400D26811437A6812680B4393607B681B68F4
:10374400DB6823F0FF017B685A697B689B691A4335
:103754007B681B680A43DA607B681B681A687B68AD
:103764001B6842F001021A607B6800221A647B68BD
:10377400202283F83D207B6800221A637B680022A4
:1037840083F83E20002318461037BD4680BD00BF95
:10379400A08601007F841E00FF083D0083DE1B43DA
:1037A400D34D6210F0B58FB00AAF78607B68002B00
:1037B40001D101230FE17B681B68BB607B6893F830
:1037C400BD33DBB2002B06D17B68002283F8BC2317
:1037D400786809F0C1FD7B68032283F8BD23BB68C8
:1037E400DB6B03F48073002B02D17B6800221A6127
:1037F4007B681B68184605F08BFF7B681B683B6081
:103804007E686D4606F110040FCC0FC50FCC0FC5B2
:1038140094E8030085E80300331D0ECB386805F0F7
:103824006DFE0346002B05D07B68022283F8BD237E
:103834000123D0E07B681B680021184605F078FF5F
:103844000023FB734AE0FA7B79681346DB009B1A7A
:103854009B000B443D3301221A70FA7B79681346AE
:10386400DB009B1A9B000B443C33FA7B1A70FA7BF7
:10387400FB7B98B279681346DB009B1A9B000B44D0
:10388400423302461A80FA7B79681346DB009B1A9E
:103894009B000B443F3300221A70FA7B796813466D
:1038A400DB009B1A9B000B44443300221A60FA7B12
:1038B40079681346DB009B1A9B000B4448330022B3
:1038C4001A60FA7B79681346DB009B1A9B000B4451
:1038D400503300221A60FB7B0133FB73FA7B7B6855
:1038E4005B689A42AFD30023FB7344E0FA7B7968A8
:1038F4001346DB009B1A9B000B4403F2FD130022CA
:103904001A70FA7B79681346DB009B1A9B000B4400
:1039140003F5FE73FA7B1A70FA7B79681346DB00B1
:103924009B1A9B000B4403F2FF1300221A70FA7BCC
:1039340079681346DB009B1A9B000B4403F5017363
:1039440000221A60FA7B79681346DB009B1A9B00FD
:103954000B4403F5027300221A60FA7B796813465C
:10396400DB009B1A9B000B4403F5047300221A60CE
:10397400FB7B0133FB73FA7B7B685B689A42B5D3AC
:103984007B681B683B607E686D4606F110040FCCB3
:103994000FC50FCC0FC594E8030085E80300331D61
:1039A4000ECB386805F010FF0346002B05D07B686A
:1039B400022283F8BD2301230DE07B68002283F8F3
:1039C40038207B68012283F8BD237B681B68184676
:1039D40006F081FF002318461437BD46F0BD80B5BC
:1039E40082B000AF78607B6893F8BC33012B01D1BF
:1039F400022312E07B68012283F8BC237B681B68E6
:103A0400184605F075FE7B681B68184606F043FFF0
:103A14007B68002283F8BC23002318460837BD4680
:103A240080BD90B58DB000AF78607B681B683B6249
:103A34003B6AFB617B681B68184606F0FAFF034685
:103A4400002B40F08F837B681B68184606F063FFE9
:103A54000346002B00F085837B681B68184606F03C
:103A64005AFF034603F00203022B07D17B681B684D
:103A74005A697B681B6802F002025A617B681B6802
:103A8400184606F048FF034603F01003102B61D1DB
:103A94007B681B689A697B681B6822F010029A6134
:103AA4003B6A1B6ABB61BB6903F00F021346DB0070
:103AB4009B1A9B0003F5FC737A68134404337B61FF
:103AC400BB695B0C03F00F03022B24D1BA6947F6E0
:103AD400F0731340002B35D07B69D968BB691B098F
:103AE4009BB2C3F30A039BB21A46386A06F085FDFB
:103AF4007B69DA68BB691B09C3F30A031A447B694F
:103B0400DA607B699A69BB691B09C3F30A031A4427
:103B14007B699A6116E0BB695B0C03F00F03062B0B
:103B240010D17B6803F5717308221946386A06F0D0
:103B340064FD7B699A69BB691B09C3F30A031A44D0
:103B44007B699A617B681B689A697B681B6842F091
:103B540010029A617B681B68184606F0DCFE034677
:103B640003F40023B3F5002F6ED100237B627B683E
:103B74001B68184606F0E1FEB86262E0BB6A03F017
:103B84000103002B57D07B681B687A6AD2B21146B6
:103B9400184606F004FF38613B6903F00103002B6B
:103BA4000CD07B6A5A01FB69134403F530631A464F
:103BB40001239360796A786800F0A2FD3B6903F001
:103BC4000803002B0CD07B6A5A01FB69134403F5EC
:103BD40030631A4608239360796A786800F09CFE83
:103BE4003B6903F01003002B08D07B6A5A01FB6980
:103BF400134403F530631A46102393603B6903F0C2
:103C04002003002B08D07B6A5A01FB69134403F597
:103C140030631A46202393603B6903F40053002B5E
:103C240009D07B6A5A01FB69134403F530631A46D1
:103C34004FF4005393607B6A01337B62BB6A5B0879
:103C4400BB62BB6A002B99D17B681B68184606F0DF
:103C540062FE034603F48023B3F5802F40F0C08056
:103C64007B681B68184606F081FEB86200237B62FD
:103C7400B2E0BB6A03F00103002B00F0A7807B686D
:103C84001B687A6AD2B21146184606F0A5FE38615E
:103C94003B6903F00103002B57D07B6A03F00F0349
:103CA400012202FA03F3FB60FB6903F500635A6B1C
:103CB400FB68DB43F96901F5006113404B637B6AE0
:103CC4005A01FB69134403F510631A4601239360F8
:103CD4007B681B69012B32D179687A6A1346DB0051
:103CE4009B1A9B000B444833196878687A6A134618
:103CF400DB009B1A9B00034444331B681944786817
:103D04007A6A1346DB009B1A9B000344483319600C
:103D14007B6A002B13D179687A6A1346DB009B1AFD
:103D24009B000B4450331B68002B08D17B68186838
:103D34007B6803F571731A46012106F0A9FE7B6ABC
:103D4400DBB21946786809F096FB3B6903F0080377
:103D5400002B08D07B6A5A01FB69134403F51063F6
:103D64001A46082393603B6903F01003002B08D024
:103D74007B6A5A01FB69134403F510631A46102346
:103D840093603B6903F04003002B08D07B6A5A011F
:103D9400FB69134403F510631A46402393603B699F
:103DA40003F00203002B08D07B6A5A01FB69134419
:103DB40003F510631A46022393603B6903F0800302
:103DC400002B03D0796A786800F00CFC7B6A01331D
:103DD4007B62BB6A5B08BB62BB6A002B7FF449AFA2
:103DE4007B681B68184606F096FD034603F0004303
:103DF400B3F1004F14D1FB6903F500635B68FA6902
:103E040002F5006223F001035360786809F0AAFB0D
:103E14007B681B685A697B681B6802F000425A6120
:103E24007B681B68184606F076FD034603F40063BE
:103E3400B3F5006F12D1FB6903F500639B6803F0CF
:103E44000103012B02D1786809F066FB7B681B68CB
:103E54005A697B681B6802F400625A617B681B68BC
:103E6400184606F058FD034603F48053B3F5805F0B
:103E740040F0C780FB6903F500635B68FA6902F5EB
:103E8400006223F0010353607B681B68102118460D
:103E940005F0FEFD0023FB6256E0FB6A5A01FB6954
:103EA400134403F510631A464FF67F339360FB6A9D
:103EB4005A01FB69134403F510631B68FA6A510144
:103EC400FA690A4402F5106223F400131360FB6AD2
:103ED4005A01FB69134403F510631B68FA6A510124
:103EE400FA690A4402F5106243F000631360FB6A46
:103EF4005A01FB69134403F530631A464FF67F33C6
:103F04009360FB6A5A01FB69134403F530631B6831
:103F1400FA6A5101FA690A4402F5306223F4001383
:103F24001360FB6A5A01FB69134403F530631B6891
:103F3400FA6A5101FA690A4402F5306243F00063F7
:103F44001360FB6A0133FB627B685B68FA6A9A421E
:103F5400A3D3FB6903F50063DB69FA6902F5006228
:103F640043F00113D3617B681B6B002B16D0FB69F4
:103F740003F50063D3F88430FA6902F5006243F074
:103F84000B03C2F88430FB6903F500635B6CFA69C8
:103F940002F5006243F00B03536415E0FB6903F57B
:103FA40000635B69FA6902F5006243F4005343F06D
:103FB4002B035361FB6903F500631B69FA6902F57E
:103FC400006243F00B031361FB6903F500631B6894
:103FD400FA6902F5006223F4FE6313607B681868D3
:103FE4007B681B69D9B27B6803F571731A4606F0C6
:103FF4004FFD7B681B685A697B681B6802F480521A
:104004005A617B681B68184606F085FC034603F476
:104014000053B3F5005F24D17B681B68184606F093
:1040240015FD7B681B68184605F08EFD03461A468D
:104034007B68DA607B681C6801F072F901467B6872
:10404400DB68DBB21A46204605F0B0FA786809F05E
:104054003AFA7B681B685A697B681B6802F4005251
:104064005A617B681B68184606F055FC034603F04A
:104074000803082B0AD1786809F017FA7B681B68D3
:104084005A697B681B6802F008025A617B681B68E6
:10409400184606F040FC034603F48013B3F5801F72
:1040A4000FD100237B627B6ADBB21946786809F082
:1040B40079FA7B681B685A697B681B6802F4801272
:1040C4005A617B681B68184606F025FC034603F416
:1040D4000013B3F5001F0FD100237B627B6ADBB2B0
:1040E4001946786809F04CFA7B681B685A697B6842
:1040F4001B6802F400125A617B681B68184606F0BC
:104104000AFC034603F08043B3F1804F0AD1786878
:1041140009F05AFA7B681B685A697B681B6802F0CD
:1041240080425A617B681B68184606F0F4FB03461C
:1041340003F00403042B15D17B681B685B68BB6127
:10414400BB6903F00403002B02D0786809F04AFA33
:104154007B681B6859687B681B68BA690A435A60A4
:1041640000E000BF3437BD4690BD80B582B000AFDB
:1041740078600B46FB707B6893F8BC33012B01D14C
:10418400022313E07B68012283F8BC237B68FA785E
:1041940083F838207B681B68FA781146184606F0C5
:1041A40055FB7B68002283F8BC230023184608379C
:1041B400BD4680BD80B584B000AF78600846114626
:1041C4001A460346FB700B463B801346BB70002324
:1041D400FB7297F90330002B0FDAFB7803F00F0220
:1041E4001346DB009B1A9B0038337A68134404336C
:1041F400FB60FB6801225A700FE0FB7803F00F02AA
:104204001346DB009B1A9B0003F5FC737A68134486
:104214000433FB60FB6800225A70FB7803F00F0341
:10422400DAB2FB681A703A88FB689A60FB68BA785D
:10423400DA70FB685B78002B04D0FB681B789AB2B9
:10424400FB68DA80BB78022B02D1FB6800221A716A
:104254007B6893F8BC33012B01D102230EE07B6809
:10426400012283F8BC237B681B68F968184605F0B3
:104274008FFC7B68002283F8BC23FB7A1846103736
:10428400BD4680BD80B584B000AF78600B46FB703E
:1042940097F90330002B0FDAFB7803F00F02134673
:1042A400DB009B1A9B0038337A6813440433FB60A9
:1042B400FB6801225A700FE0FB7803F00F021346EB
:1042C400DB009B1A9B0003F5FC737A6813440433E8
:1042D400FB60FB6800225A70FB7803F00F03DAB22C
:1042E400FB681A707B6893F8BC33012B01D102235D
:1042F4000EE07B68012283F8BC237B681B68F968A5
:10430400184605F0CBFC7B68002283F8BC2300230D
:1043140018461037BD4680BD80B586B000AFF86042
:104324007A603B600B46FB72FB7A03F00F02134684
:10433400DB009B1A9B0003F5FC73FA6813440433F7
:104344007B617B697A68DA607B693A685A617B6968
:1043540000229A617B6900225A70FB7A03F00F03F2
:10436400DAB27B691A70FB681B69012B02D17A6887
:104374007B691A61FB7A03F00F03002B09D1FB68F8
:104384001868FB681B69DBB21A46796905F0A6FF59
:1043940008E0FB681868FB681B69DBB21A46796998
:1043A40005F058FD002318461837BD4680BD80B47B
:1043B40083B000AF78600B46FB70FB7803F00F020C
:1043C40079681346DB009B1A9B000B4403F50573C5
:1043D4001B6818460C37BD4680BC704780B586B054
:1043E40000AFF8607A603B600B46FB72FB7A03F027
:1043F4000F021346DB009B1A9B003833FA68134400
:1044040004337B617B697A68DA607B693A685A6154
:104414007B6900229A617B6901225A70FB7A03F05E
:104424000F03DAB27B691A70FB681B69012B02D196
:104434007A687B691A61FB7A03F00F03002B09D1B8
:10444400FB681868FB681B69DBB21A46796905F0DA
:1044540045FF08E0FB681868FB681B69DBB21A4675
:10446400796905F0F7FC002318461837BD4680BD6E
:1044740080B584B000AF78600B46FB70FB7803F026
:104484000F027B685B689A4201D9012350E097F9D7
:104494000330002B0FDAFB7803F00F021346DB0026
:1044A4009B1A9B0038337A6813440433FB60FB681F
:1044B40001225A700DE0FA781346DB009B1A9B0028
:1044C40003F5FC737A6813440433FB60FB68002231
:1044D4005A70FB6801229A70FB7803F00F03DAB27A
:1044E400FB681A707B6893F8BC33012B01D102235B
:1044F4001EE07B68012283F8BC237B681B68F96893
:10450400184606F0D1F8FB7803F00F03002B0AD10C
:104514007B6818687B681B69D9B27B6803F5717383
:104524001A4606F0B5FA7B68002283F8BC23002300
:1045340018461037BD4680BD80B584B000AF7860A2
:104544000B46FB70FB7803F00F027B685B689A42B2
:1045540001D9012342E097F90330002B0FDAFB78ED
:1045640003F00F021346DB009B1A9B0038337A6872
:1045740013440433FB60FB6801225A700FE0FB789C
:1045840003F00F021346DB009B1A9B0003F5FC7338
:104594007A6813440433FB60FB6800225A70FB689A
:1045A40000229A70FB7803F00F03DAB2FB681A70EA
:1045B4007B6893F8BC33012B01D102230EE07B68A6
:1045C400012283F8BC237B681B68F968184606F04F
:1045D400D8F87B68002283F8BC23002318461037E0
:1045E400BD4680BD80B58AB002AF786039607B6813
:1045F4001B687B617B693B613A681346DB009B1A4D
:104604009B0038337A6813440433FB60FB689A696F
:10461400FB685B699A4201D901236CE0FB685A6923
:10462400FB689B69D31AFB61FB689B68FA699A4231
:1046340002D9FB689B68FB61FB6903339B08BB6180
:104644002BE0FB685A69FB689B69D31AFB61FB6822
:104654009B68FA699A4202D9FB689B68FB61FB6913
:1046640003339B08BB61FB68D9683B68DAB2FB691A
:1046740098B27B681B69DBB200930346786905F046
:104684007FFFFB68DA68FB691A44FB68DA60FB6841
:104694009A69FB691A44FB689A613B685A013B6951
:1046A400134403F510639B699BB2BA699A4209D813
:1046B400FB689A69FB685B699A4203D2FB685B6991
:1046C400002BBED1FB685A69FB689B699A4211D8DA
:1046D4003B6803F00F03012202FA03F3BB603B695A
:1046E40003F500635A6BBB68DB43396901F500616C
:1046F40013404B63002318462037BD4680BD00009D
:1047040080B586B000AF786039607B681B687B61D8
:104714007B693B617B693C3304331B68FB603B680A
:104724005A013B69134403F530639B68BB607B68A3
:104734001B69012B40F0A080BB6803F00803002B29
:1047440015D0FB68724A934240F2DD80BB6803F4E3
:104754000043002B00F0D7803B685A013B691344A7
:1047640003F530631A464FF400439360CBE0BB6813
:1047740003F02003002B09D03B685A013B69134422
:1047840003F530631A4620239360BCE0BB6803F052
:104794002803002B40F0B780FB685D4A93420FD991
:1047A400BB6803F40043002B0AD03B685A013B6901
:1047B400134403F530631A464FF400439360A2E0B8
:1047C40079683A681346DB009B1A9B000B4403F597
:1047D40001731A683B6859013B690B4403F5306364
:1047E4001B69C3F31203D11A78683A681346DB00D5
:1047F4009B1A9B00034403F50573196079683A68B2
:104804001346DB009B1A9B000B4403F502731968E3
:1048140078683A681346DB009B1A9B00034403F54F
:1048240001731B68194478683A681346DB009B1AC5
:104834009B00034403F5027319603B68002B14D1F9
:1048440079683A681346DB009B1A9B000B4403F516
:1048540004731B68002B08D17B6818687B6803F518
:1048640071731A46012106F013F93B68DBB219464D
:10487400786808F0E5FD46E0FB68264A934224D1B7
:10488400BB6803F40043002B0AD03B685A013B6920
:10489400134403F530631A464FF40043936032E047
:1048A400BB6803F02003002B08D03B685A013B6926
:1048B400134403F530631A46202393603B68DBB24C
:1048C4001946786808F0BCFD1DE03B68002B14D144
:1048D40079683A681346DB009B1A9B000B4403F586
:1048E40004731B68002B08D17B6818687B6803F588
:1048F40071731A46002106F0CBF83B68DBB2194607
:10490400786808F09DFD002318461837BD4680BD21
:104914000A30544F0A31544F80B586B000AF7860E6
:1049240039607B681B687B617B693B617B693C33D5
:1049340004331B68FB603B685A013B69134403F56D
:1049440030639B68BB60FB68154A93420ED9BB6811
:1049540003F40043002B09D03B685A013B6913441C
:1049640003F530631A464FF400439360786808F007
:1049740055FDFB680A4A93420CD97B681B69012BDD
:1049840008D17B6818687B6803F571731A460121A6
:1049940006F07EF8002318461837BD4680BD00BFD8
:1049A4000A30544F80B485B000AF78600B46FB707A
:1049B40013463B807B681B685B6ABB60FB78002BFB
:1049C40007D13B8819047B681B68BA680A439A625A
:1049D40028E07B681B689B6A1B0CBA681344BB60A5
:1049E4000023FB730DE07B681A68FB7B40339B005C
:1049F40013445B681B0CBA681344BB60FB7B013334
:104A0400FB73FA7BFB78013B9A42ECD33B88180496
:104A14007B681968FB78013BBA68024340339B000A
:104A24000B445A60002318461437BD4680BC7047B7
:104A340080B483B000AF78600B467B807B681B68D2
:104A44007A885A62002318460C37BD4680BC7047EA
:104A540080B58AB000AF78607B68002B01D1012358
:104A640036E27B681B6803F00103002B50D09E4B99
:104A74009B6803F00C03042B0CD09B4B9B6803F046
:104A84000C03082B12D1984B5B6803F48003B3F535
:104A9400800F0BD1944B1B6803F40033002B36D0EA
:104AA4007B685B68002B32D1012311E27B685A6872
:104AB4008E4BD2B21A707B685B68002B13D0FDF763
:104AC40087F9386208E0FDF783F902463B6AD31A96
:104AD400642B01D90323FBE1834B1B6803F40033EC
:104AE400002BF0D014E0FDF773F9386208E0FDF70D
:104AF4006FF902463B6AD31A642B01D90323E7E119
:104B0400794B1B6803F40033002BF0D100E000BFA5
:104B14007B681B6803F00203002B77D0724B9B6801
:104B240003F00C03002B0BD06F4B9B6803F00C03BA
:104B3400082B26D16C4B5B6803F48003002B20D137
:104B4400694B1B6803F00203002B05D07B68DB680C
:104B5400012B01D00123BBE1634B1B6823F0F80256
:104B64007B681B69F821B961B96991FAA1F179618E
:104B74007969B1FA81F1C9B28B405B4913430B6087
:104B840044E07B68DB68002B2AD0594B01221A6071
:104B9400FDF71EF9386208E0FDF71AF902463B6A90
:104BA400D31A022B01D9032392E14F4B1B6803F064
:104BB4000203002BF0D04C4B1B6823F0F8027B68F7
:104BC4001B69F8213961396991FAA1F1F960F96831
:104BD400B1FA81F1C9B28B40434913430B6015E02C
:104BE400434B00221A60FDF7F3F8386208E0FDF742
:104BF400EFF802463B6AD31A022B01D9032367E17B
:104C0400394B1B6803F00203002BF0D17B681B684F
:104C140003F00803002B30D07B685B69002B16D0AF
:104C2400344B01221A60FDF7D3F8386208E0FDF72F
:104C3400CFF802463B6AD31A022B01D9032347E17A
:104C4400294B5B6F03F00203002BF0D015E0294BD6
:104C540000221A60FDF7BCF8386208E0FDF7B8F8E6
:104C640002463B6AD31A022B01D9032330E11E4BBF
:104C74005B6F03F00203002BF0D17B681B6803F029
:104C84000403002B00F08780002387F82730164B9D
:104C94001B6C03F08053002B10D10023BB60124B1C
:104CA4001B6C114A43F0805313640F4B1B6C03F0CD
:104CB4008053BB60BB68012387F827300E4B1B6809
:104CC4000D4A43F4807313600B4B1B6803F4807329
:104CD400002B22D1084B1B68074A43F480731360EE
:104CE400FDF776F8386212E00038024002380240DC
:104CF40000004742800E474200700040FDF768F80C
:104D040002463B6AD31A022B01D90323E0E0724B1B
:104D14001B6803F48073002BF0D07B689A686F4B98
:104D2400D2B21A707B689B68002B15D0FDF750F83F
:104D340038620AE0FDF74CF802463B6AD31A41F2A6
:104D44008832934201D90323C2E0654B1B6F03F001
:104D54000203002BEED014E0FDF73AF838620AE0C3
:104D6400FDF736F802463B6AD31A41F28832934281
:104D740001D90323ACE05A4B1B6F03F00203002B51
:104D8400EED197F82730012B05D1554B1B6C544AB3
:104D940023F0805313647B689B69002B00F0978099
:104DA4004F4B9B6803F00C03082B61D07B689B6915
:104DB400022B46D14B4B00221A60FDF709F83862EA
:104DC40008E0FDF705F802463B6AD31A642B01D9C3
:104DD40003237DE0424B1B6803F00073002BF0D1EA
:104DE4003F4B5A68404B13407A68D1697A68126A1B
:104DF40011437A68526A920111437A68D26A1206A0
:104E040011437A68926A5208013A12040A433449F7
:104E140013434B60334B01221A60FCF7D9FF38620D
:104E240008E0FCF7D5FF02463B6AD31A642B01D98C
:104E340003234DE02A4B1B6803F00073002BF0D0D2
:104E440045E0284B00221A60FCF7C2FF386208E0F4
:104E5400FCF7BEFF02463B6AD31A642B01D9032335
:104E640036E01F4B1B6803F00073002BF0D12EE0DB
:104E74007B689B69012B01D1012329E0184B5B68F6
:104E8400FB61FB6903F480027B68DB699A421CD1F5
:104E9400FB6903F03F027B681B6A9A4215D1FB69E8
:104EA4009B09C3F308027B685B6A9A420DD1FB69D4
:104EB40003F440327B689B6A9A4206D1FB6903F093
:104EC40070627B68DB6A9A4201D0012300E0002310
:104ED40018462837BD4680BD007000407038024037
:104EE40000380240600047420080BCF080B586B0C4
:104EF40000AF786039607B68002B01D10123D2E0D8
:104F04006B4B1B6803F00F033A689A420CD9684B49
:104F14003A68D2B21A70664B1B6803F00F033A6802
:104F24009A4201D00123BEE07B681B6803F00203B0
:104F3400002B20D07B681B6803F00403002B05D0F2
:104F44005C4B9B685B4A43F4E05393607B681B684B
:104F540003F00803002B05D0564B9B68554A43F4D5
:104F640060439360534B9B6823F0F0027B689B681B
:104F7400504913438B607B681B6803F00103002BCB
:104F840040D07B685B68012B07D14A4B1B6803F454
:104F94000033002B15D1012385E07B685B68022B6D
:104FA40007D1444B1B6803F00073002B09D1012384
:104FB40079E0404B1B6803F00203002B01D101236D
:104FC40071E03C4B9B6823F003027B685B683949C2
:104FD40013438B60FCF7FCFE78610AE0FCF7F8FEF3
:104FE40002467B69D31A41F28832934201D90323E2
:104FF40059E0304B9B6803F00C027B685B689B00B4
:105004009A42EBD12A4B1B6803F00F033A689A4289
:105014000CD2274B3A68D2B21A70254B1B6803F0A6
:105024000F033A689A4201D001233CE07B681B6875
:1050340003F00403002B08D01E4B9B6823F4E052BA
:105044007B68DB681B4913438B607B681B6803F038
:105054000803002B09D0174B9B6823F460427B683C
:105064001B69DB00134913438B6000F093F801467E
:10507400104B9B6803F0F003F0223A613A6992FA0C
:10508400A2F2FA60FA68B2FA82F2D2B2D3400A4AC1
:10509400D35C21FA03F3094A1360094B1B681846D1
:1050A400FCF766FE002318461837BD4680BD00BFD6
:1050B400003C0240003802406CDE00084000002042
:1050C4004400002080B58CB000AFF860B9607A600D
:1050D400FB68002B29D10023BB612B4B1B6B2A4A95
:1050E40043F001031363284B1B6B03F00103BB6103
:1050F400BB694FF48073FB6102233B620323BB62F1
:1051040000237B620023FB6207F11C0319461F483E
:10511400FDF738FF1C4B9B6823F0EC62B9687B6891
:105124000B43194913438B6029E000237B61164B21
:105134001B6B154A43F004031363134B1B6B03F0FF
:1051440004037B617B694FF40073FB6102233B62C0
:105154000323BB6200237B620023FB6207F11C0371
:1051640019460B48FDF70EFF074B9B6823F0784266
:105174007B68D900BB680B43034913438B6000BFB2
:105184003037BD4680BD00BF0038024000000240F9
:10519400000802402DE9B04F90B000AF00237B63BC
:1051A4000023FB6300233B630023BB63594B9B68D1
:1051B40003F00C03082B0DD0082B00F2A280002B67
:1051C40002D0042B03D09CE0534BBB639CE0534BB5
:1051D400BB6399E04F4B5B6803F03F037B634D4B2C
:1051E4005B6803F48003002B27D04A4B5B689B0960
:1051F40000223B627A623B6AC3F308000021474BFA
:1052040003FB01F2002300FB03F31344434AA0FB16
:105214000221F962BA62FA6A1344FB627B6B0022D0
:10522400BB61FA61D7E90623D7E90A01FAF7C8FF97
:1052340002460B461346FB6355E0364B5B689B09FD
:1052440000223B617A613B69C3F3080A4FF0000B0B
:1052540052465B464FF000004FF00001590141EA0D
:10526400D261500102460B46B2EB0A0863EB0B090C
:105274004FF000024FF000034FEA891343EA9863AA
:105284004FEA8812B2EB080463EB09054FF0000201
:105294004FF00003EB0043EA5473E20014461D464A
:1052A40014EB0A033B6045EB0B037B604FF00002F9
:1052B4004FF00003D7E9004529468B0220462946D2
:1052C400044643EA945301468A02104619467B6B0E
:1052D4000022BB60FA60D7E90223FAF771FF0246A5
:1052E4000B461346FB630B4B5B681B0C03F0030379
:1052F40001335B003B63FA6B3B6BB2FBF3F3BB63C1
:1053040002E0054BBB6300BFBB6B18464037BD468C
:10531400BDE8B08F003802400024F40040787D01DD
:1053240080B400AF024B1B681846BD4680BC704772
:105334004000002080B582B000AFFFF7F1FF0146C6
:105344000B4B9B6803F4E0534FF4E0527A607A68A5
:1053540092FAA2F23A603A68B2FA82F2D2B2D34036
:10536400044AD35C21FA03F318460837BD4680BDCE
:10537400003802407CDE000880B582B000AFFFF741
:10538400CFFF01460B4B9B6803F460434FF460422C
:105394007A607A6892FAA2F23A603A68B2FA82F2D1
:1053A400D2B2D340044AD35C21FA03F31846083737
:1053B400BD4680BD003802407CDE000880B58AB05E
:1053C40000AF786000237B6200233B627B681B682C
:1053D40003F00103002B03D17B681B68082B4CD11D
:1053E4006D4B00221A60FCF7F3FC786208E0FCF7CE
:1053F400EFFC02467B6AD31A022B01D90323C7E0D0
:10540400664B1B6803F00063002BF0D17B685B687C
:1054140047F6C0727A617A6992FAA2F23A613A69FD
:10542400B2FA82F2D2B203FA02F27B689B684FF0BE
:10543400E041F961F96991FAA1F1B961B969B1FA87
:1054440081F1C9B28B4055491343C1F88430524BA2
:1054540001221A60FCF7BCFC786208E0FCF7B8FC97
:1054640002467B6AD31A022B01D9032390E04B4BEB
:105474001B6803F00063002BF0D07B681B6803F00B
:105484000403002B00F083800023FB60434B1B6C60
:10549400424A43F080531364404B1B6C03F0805327
:1054A400FB60FB683E4B1B683D4A43F4807313600A
:1054B400FCF78EFC786208E0FCF78AFC02467B6A03
:1054C400D31A022B01D9032362E0354B1B6803F482
:1054D4008073002BF0D0314B1B6F03F440733B629D
:1054E4003B6A002B2FD07B68DB6803F440733A6A75
:1054F4009A4228D0294B1B6F23F440733B62294BFB
:1055040001221A60274B00221A60244A3B6A13675F
:10551400224B1B6F03F00103012B14D1FCF758FC41
:1055240078620AE0FCF754FC02467B6AD31A41F223
:105534008832934201D903232AE0184B1B6F03F0EE
:105544000203002BEED07B68DB6803F44073B3F5F1
:10555400407F0DD1114B9B6823F4F8127B68DB6804
:1055640023F0704323F440730C4913438B6005E02C
:105574000A4B9B68094A23F4F8139360074B1A6F8C
:105584007B68DB68C3F30B03044913430B670023F5
:1055940018462837BD4680BD68004742003802409F
:1055A40000700040400E474280B582B000AF786082
:1055B4007B68002B01D101231CE07B685B79DBB2A3
:1055C400002B05D17B6800221A717868FBF7D6FCA2
:1055D4007B6802225A717B681B681A687B681B68A7
:1055E40042F004021A607B6801225A717B6800222F
:1055F4009A60002318460837BD4680BD80B582B046
:1056040000AF78607B68002B01D101237CE07B68CC
:105614005B7FDBB2002B05D17B6800221A777868A8
:10562400FBF724FD7B6802225A777B681B68CA2239
:105634005A627B681B6853225A62786800F0E6F964
:105644000346002B08D07B681B68FF225A627B68E4
:1056540004225A77012357E07B681B689B687A68A9
:10566400126823F4E00323F0400393607B681B6813
:1056740099687B685A687B681B691A437B685B6915
:105684001A437B681B680A439A607B681B687A68C4
:10569400D2681A617B681B6819697B689B681A0465
:1056A4007B681B680A431A617B681B68DA687B683D
:1056B4001B6822F08002DA60786800F07FF9034604
:1056C400002B08D07B681B68FF225A627B68042287
:1056D4005A77012318E07B681B681A6C7B681B6887
:1056E40022F480221A647B681B68196C7B689A69AF
:1056F4007B681B680A431A647B681B68FF225A6232
:105704007B6801225A77002318460837BD4680BDBE
:1057140090B587B000AFF860B9607A6000237B6110
:10572400FB681B7F012B01D10223A3E0FB6801224C
:105734001A77FB6802225A777B68002B26D1FB6814
:105744001B689B6803F04003002B02D1BB68002256
:10575400DA70BB681B78184600F084F903461C0411
:10576400BB685B78184600F07DF903461B021C43B6
:10577400BB689B78184600F075F9034644EA0302B7
:10578400BB68DB781B0413437B6118E0FB681B6870
:105794009B6803F04003002B02D1BB680022DA703F
:1057A400BB681B781A04BB685B781B021343BA6896
:1057B40092781A43BB68DB781B0413437B61FB6854
:1057C4001B68CA225A62FB681B6853225A62F86833
:1057D40000F01CF90346002B0BD0FB681B68FF226A
:1057E4005A62FB6804225A77FB6800221A77012365
:1057F40040E0FB681A687B6903F07F3323F0FE43C3
:105804001360FB681B689A68FB681B6822F480229B
:105814009A60FB681B689968BB685A68BB689B6898
:105824001A43FB681B680A439A60FB681B68DA68C2
:10583400FB681B6822F08002DA60F86800F0BEF8AA
:105844000346002B0BD0FB681B68FF225A62FB68DF
:1058540004225A77FB6800221A7701230AE0FB68C6
:105864001B68FF225A62FB6801225A77FB680022F8
:105874001A77002318461C37BD4690BD90B587B0F3
:1058840000AFF860B9607A6000237B61FB681B7F1E
:10589400012B01D102238DE0FB6801221A77FB68FA
:1058A40002225A777B68002B0ED1BB685B7803F029
:1058B4001003002B08D0BB685B7823F01003DBB225
:1058C4000A33DAB2BB685A707B68002B1CD1BB6800
:1058D400DB78184600F0C6F803461C04BB685B7806
:1058E400184600F0BFF803461B021C43BB689B78B4
:1058F400184600F0B7F8034644EA0302BB681B7875
:105904005B0313437B610EE0BB68DB781A04BB685E
:105914005B781B021343BA6892781A43BB681B78FE
:105924005B0313437B61FB681B68CA225A62FB68F2
:105934001B6853225A62F86800F068F80346002B8B
:105944000BD0FB681B68FF225A62FB6804225A775B
:10595400FB6800221A7701232CE0FB681A687B6934
:1059640023F07F4323F0C0035360FB681B68DA68AD
:10597400FB681B6822F08002DA60F86800F01EF809
:105984000346002B0BD0FB681B68FF225A62FB689E
:1059940004225A77FB6800221A7701230AE0FB6885
:1059A4001B68FF225A62FB6801225A77FB680022B7
:1059B4001A77002318461C37BD4690BD80B584B0C5
:1059C40000AF78600023FB607B681B68DA687B6843
:1059D4001B6822F0A002DA60FCF7FAF9F86009E02B
:1059E400FCF7F6F90246FB68D31AB3F57A7F01D9BE
:1059F400032307E07B681B68DB6803F02003002BAC
:105A0400EED0002318461037BD4680BD80B584B063
:105A140000AF78600023FB607B681B68DB6803F0E1
:105A24004003002B19D17B681B684FF0FF32DA600A
:105A3400FCF7CEF9F86009E0FCF7CAF90246FB6806
:105A4400D31AB3F57A7F01D9032307E07B681B6877
:105A5400DB6803F04003002BEED000231846103718
:105A6400BD4680BD80B485B000AF0346FB71002302
:105A7400FB6005E0FB680133FB60FB790A3BFB71CB
:105A8400FB79092BF6D8FB68DBB21B01DAB2FB7990
:105A94001343DBB218461437BD4680BC704780B54B
:105AA40082B000AF78607B68002B01D1012322E033
:105AB4007B6893F83430DBB2002B05D17B6800227D
:105AC4001A777868FBF708FB7B68032283F8342095
